H0000000001202011242016110120180401000020000003000000000000000000000000000000                                                                                                                                                                                                                                                                                                                                   
20000000002122200Manuel Joao da Cruz                                         000000032570503720122220Rua Joaquim Tavora                                          24                       Ap 804/ Bl 01            Icarai                   Niteroi                  RJ24230540011139Renata Conceicao da Silva                                   000000001881029735                                             
3000000000320161101Aluguel             0000234173111                                                                                                                                                                                                                                                                                                                                                            
3000000000420161101Tx  Condominio      0000130194011                                                                                                                                                                                                                                                                                                                                                            
3000000000520161101IPTU                0000020629011                                                                                                                                                                                                                                                                                                                                                            
T000000000600000000010000000001000000000000000000010000000005                                                                                                                                                                                                                                                                                                                                                   
